:200000003FC0000071C000006FC000000C94D5090C94D2090C94CF0967C0000065C00000C4
:2000200063C0000061C000005FC000005DC000005BC0000059C0000057C000000C94A009AC
:2000400053C0000051C000004FC000004DC000004BC0000049C0000047C0000045C0000040
:2000600043C0000041C000003FC000003DC000003BC0000039C0000037C00000FD0D560E27
:2000800011241FBECFEFCDBFDFE3DEBF8091400080934000811105C098ED21E094BF20931E
:2000A00041008CBB18E3A0E0B8E3E2E4F9E202C005900D92A231B107D9F728E3A2E1B8E387
:2000C00001C01D92AE3BB207E1F710E0CFE3D0E004C02197FE010E94D00FCE33D107C9F74F
:2000E0000E941F0A0C94D2118BCF282F30E0F901E85EFB4590819F3F69F12A5F3B45D90145
:20010000EC91F0E0DF01AA0FBB1FAF5FB74C2D913C9121153105F1F061157105D9F0492F09
:2001200050E0440F551F240F351FD9016D937C934FB7F8949F0155E0220F331F5A95E1F7A7
:20014000E0E1E90FE20FF0E0FC5F8081887F816080834FBF08952FB7F894609199387091FE
:200160009A3880919B3890919C382FBF0895CF92DF92EF92FF929FB7F89488E08093840A7A
:2001800080918E0A81FFFCCF80918D0AE091A20AF091A30AC0909538D0909638E0909738EE
:2001A000F09098389FBF80FF08C0E730F10528F48FEFC81AD80AE80AF80A9F0136952795C4
:2001C000CF01820F911DE22FE695E695322F32953F70E31BFF0B27FD3196E80FF91FA0E3AD
:2001E000B3E0A70196010E94370FF694E794D794C794C60ED71EE81EF91EC701B6016E0F98
:200200007F1F811D911DFF90EF90DF90CF900895CF92DF92EF92FF92CF93DF936B017C01DA
:20022000A6DFEB01C114D104E104F10441F412C081E0C81AD108E108F108C851DC4F97DF0A
:200240006C1B7D0B683E734068F3C114D104E104F10471F7DF91CF91FF90EF90DF90CF9043
:200260000895AF92BF92CF92DF92EF92FF920F931F93CF93DF936C017B018B01040F151F87
:20028000EB015E01AE18BF08C017D10759F06991D601ED91FC910190F081E02DC60109953E
:2002A000892B79F7C501DF91CF911F910F91FF90EF90DF90CF90BF90AF90089520918A38BA
:2002C00030918B382817390771F49091893880918838981741F0E0918938F0E0E85BF74C9B
:2002E000808190E008958FEF9FEF08950895EF92FF920F931F93CF93DF93DC015896ED9028
:20030000FC905997E114F10479F481E090E012968D939C93139790E080E0DF91CF911F9148
:200320000F91FF90EF9008951D96ED91FC911E971C968C911C97982F90950FB75A962C911E
:200340005A97122F127021FD6095F8942081112319F1282B2083E7012197F1F728E0462F70
:2003600050E0308160FF1AC0382B3083E7012197F1F7BA0175956795215089F7112381F06E
:200380008081892380830FBF58968D919C910197F1F781E090E0C1CF2923DCCF3923E5CFBE
:2003A0009081892BEFCF20918A3830918B382817390741F48091883890918938891B8F73B6
:2003C00090E0089590E080E0089520918A3830918B3828173907A1F49091893880918838E5
:2003E000981771F0E0918938F0E0E85BF74C8081909189389F5F9F739093893890E0089581
:200400008FEF9FEF0895E0918A38F0918B38309709F44DC0A285B3858185928D91FF04C013
:200420009C91892329F408959C91892309F03FC0A785B0899C918189809589238C938289D1
:2004400093890197F1F764897589A285B385518538E020E0CB010197F1F7822F90E0959531
:200460008795282F4C91452309F02068315091F7828D81FD20958091883890E001968F731E
:20048000992730918938381799F0A0918838B0E0A85BB74C2C938093883886899789019762
:2004A000F1F7A785B0898C919189892B8C930895828D8160828FF1CF90E080E0089581E0B9
:2004C00080933E3808958091363881115CC085E092E08093B7389093B83881EF90E08093EA
:2004E000B1389093B23883E092E08093B3389093B4388AE791E08093B5389093B638809120
:20050000A738823118F463E072E0EFDD8091B7389091B8380197F1F78091B5389091B6383E
:20052000892B49F1E0918A38F0918B3888E3EF39F80709F1309739F0A785B0899C9181893E
:20054000809589238C938091B9388E7F8093B93810928838109289388FE998E380938A381B
:2005600090938B38E091AE38F091AF3880819091B038892B808362E370E080E090E048DE8A
:2005800081E0809336380895E6DD60938F387093903880939138909392380895FC01A08110
:2005A000B0E0BC5E2C91621769F0E0E0F0E10FB622812370E9F7F8946C936DE964BF63E04F
:2005C00060830FBE0895FC0101900020E9F73197AF01481B590BBC018FE998E342CE8F9220
:2005E0009F92AF92BF920F931F93CF93DF93CDB7DEB7A197CDBFDEBF19A2423008F44AE043
:200600008E010F5D1F4F842E912CB12CA12CA50194010E94780FE62FB901CA01EA30D4F478
:20062000E05DD801EE938D01232B242B252B79F790E080E0109711F0CD01C5DFA196CDBF8B
:20064000DEBFDF91CF911F910F91BF90AF909F908F900895E95CE5CFCF93DF93B4DFEC0117
:200660008AE294EAB0DF8C0F9D1FDF91CF910895AACF4F925F926F927F928F929F92AF924D
:20068000BF92CF92DF92EF92FF922B013C0169017A0161DD4B015C015EDD681979098A091F
:2006A0009B09641575058605970538F486E594EADFDFC701B601ACDDEFCF8DE994EAFF9060
:2006C000EF90DF90CF90BF90AF909F908F907F906F905F904F90C0CFCF92DF92EF92FF92A2
:2006E000CF93DF9397FF19C06B017C016DE28FE998E3FDDDEC0166277727CB016C197D09C3
:200700008E099F094AE06BDF8C0F9D1FDF91CF91FF90EF90DF90CF9008954AE0DF91CF918C
:20072000FF90EF90DF90CF905ACF90E0FC01EC50FC4520812F3F79F08A5F9B45DC01EC912F
:20074000B0E2EB9FF0011124FC5F9085922381E019F480E008958FEF0895CF93DF93823125
:2007600008F047C090E0EC01CC50DC4528812F3F09F43FC0AC014A5F5B45DA01EC91B0E2ED
:20078000EB9FF0011124FC5F611136C0268330812323A1F49C01285E3B45D9012C913097B0
:2007A00069F1283058F57096E20FF11D3FB7F8942081611126C0277F20833FBF8E519C45B3
:2007C000FC0190819923A9F08881903409F1983FE1F0903171F4DA019C919130A1F485300E
:2007E00010F0880F82959091010A809589238093010ADF91CF9108952583C9CFF0E0E0E003
:20080000D5CF2860D9CF880FEECF1092A006F1CF823019F180E49091920A982351F34FB7C6
:20082000F8949091800A9E7F9093800A2091920A90E08095909530E08223932328ED24BF5D
:200840008093920A80918E0A80FFFCCF8091800A81608093800A4FBFCCCF80E8DCCF82316E
:20086000F0F490E0FC01EC50FC4520812F3FB9F0FC01EA5FFB45E08130E2E39FF001112451
:20088000FC5F60FF0DC02183885E9B45DC018C91E80FF11D808961FF05C08860808B0895AA
:2008A0002283F2CF877FFACFCF93823108F093C0282F30E0F901EC50FC4590819F3F09F4D9
:2008C0008AC0C82FF901EE51FC458081803409F43BC0883F89F1803109F078C01616170644
:2008E0003CF060E08C2F39DF61E08C2FCF91B7CF6F3F710514F061E0F5CF953048F0990F05
:200900002A5F3B45F9018081E1E0813011F49295E0E0892F847459F0EC5FF0E0E85DF54FD8
:2009200060838091010A982B9093010ADDCF892F827299F3EE5FF1CF6093A1068091A00685
:2009400081648093A006D0CF1616170654F66F3F71058CF64FB7F89480918E0A8370833040
:20096000D9F72FEF30E0261B370B220F331F21503109923009F52093AC0A3093AD0A90E8AD
:200980008091920A8923F1F48091800A8E7F8093800A8091920A892B90E028ED24BF8093F8
:2009A000920A80918E0A80FFFCCF8091800A81608093800A4FBF98CF2093A80A3093A90A3F
:2009C00090E4DECF81E08093840AF4CF603871050CF487CF90CFCF9108952091933856E4BB
:2009E00021115CE140E0252F342F621773070CF49B01AEECB3EA48ED53EAED91FD91EE0F70
:200A0000FF1FE852FC45608171818617970749F04A175B0791F761E0253131050CF460E09E
:200A20009CCEB90137FF02C070E060E03DCF0F931F93CF93DF938C01C8EDD3EAB801899104
:200A40009991CBDF83EAC23ED807C1F7DF91CF911F910F910895CF92DF92EF92FF920F937B
:200A60001F93CF93DF93C8E2D0E008ED13EA7801BE01F701819191917F01AFDFF2EEEF164D
:200A8000F3EAFF06A9F768E070E080E090E0C0DB219758F78DE049DE811106C06AE070E044
:200AA00080E090E0B5DBF6CF6EE170E080E090E0AFDBC8EDD3EAF880229670E060E08F2D2A
:200AC000F3DE60E08F2D49DE60E08F2DC8DE83EAC23ED80781F781E08093943810923E3864
:200AE00080933D386FE572E08DE0FFDA80915000897F82608093500080913E3881110CC0EF
:200B0000F8948091500081608093500078948895809150008E7FEECF80913D38882379F0B6
:200B200080915304887F8093530488E083BDE0910538F09106381682178210923D38F80186
:200B4000F0800E5F1F4F61E08F2D89DE70E060E08F2DAADEC017D10791F782E190E067DFC2
:200B600068E270E080E090E053DB90E080E05FDF1092943810923F3810923E3805DDEBDA89
:200B800068587F4F8F4F9F4F60934438709345388093463890934738DEDA6B017C018DE0CB
:200BA000C4DD81110FC065E070E080E090E030DBD2DA6C197D098E099F09693E73408105ED
:200BC000910568F36EE170E080E090E021DB8DE0ACDD91E0811101C090E090930038DF91C4
:200BE000CF911F910F91FF90EF90DF90CF900895CF92DF92EF92FF92CF93ADDA6B017C0116
:200C00008091443890914538A0914638B0914738C816D906EA06FB0670F48DE086DD91E0E7
:200C2000811101C090E090930038CF91FF90EF90DF90CF9008958DE078DDC1E09091003801
:200C400081112EC0C0E0992359F0C0924038D0924138E0924238F092433810923F3894DC58
:200C60008091403890914138A0914238B0914338C81AD90AEA0AFB0A81EDC81687E0D8069B
:200C8000E104F10420F180913F38811120C081E080933F38CF91FF90EF90DF90CF90DBCE9F
:200CA000911115C080913F38811111C06DDC80918D3890918E38019665E070E00E94A90F46
:200CC00080938D3890938E3890E080E0B0DEC0930038ABCF0F931F93CF93DF93EC018881D2
:200CE0009981009759F02A813B812617370730F081E0DF91CF911F910F9108958B016F5F80
:200D00007F4F0E94FB10009759F0888399830A831B832C813D81232B59F7FC011082E8CFD7
:200D200080E0E7CF4F925F926F927F92AF92BF92CF92DF92EF92FF920F931F93CF93DF931B
:200D4000CDB7DEB72E97CDBFDEBF8AE0EEDC182F02DA6B017C0111113CC216DC80913738BA
:200D6000811108C0C0923938D0923A38E0923B38F0923C388091933881112AC080913938CD
:200D800090913A38A0913B38B0913C380097A105B105F1F0C81AD90AEA0AFB0A88ECC81683
:200DA000D104E104F104A0F081E0809393388BDB84E190E03CDE6CE370E080E090E028DAEF
:200DC00090E080E034DE68E270E080E090E020DA80919338882309F436C28091383881113E
:200DE00032C281E0809338386EDB8DE994EA34DC8DE294EA31DC412C512C320100E014E1E2
:200E0000F801F08081E494EA33DCC301B20164DC8AEF98EA2DDC87E494EA2ADCFFE0FF15DA
:200E200018F08AE494EA24DC6F2D70E090E080E040E1D5DB8CE494EA1BDC80EE8F0D8F357E
:200E400008F024C16F2D8FE998E351DA89E099EA03DC0F5F1F4F8FEF481A580A680A780A1E
:200E60000630E4E11E0761F68DE994EAF5DB2BDB8DE994EAF1DB8FE494EAEEDB68E572E018
:200E800080E090E0C5D988E594EAE6DB68E572E080E090E0BDD983E694EADEDB60E273E0FE
:200EA00080E090E0B5D98DE994EAD6DB87E794EADFDB20E931E040E050E064EC79E080E016
:200EC00090E0D7DB68EE73E080E090E0A1D989E894EACEDB20E931E040E050E060EA7FE052
:200EE00080E090E0C6DB68EE73E080E090E090D988E994EAB1DB8EE994EAAEDB85EC94EAB7
:200F0000ABDB8CEE94EAA8DB83E195EAA5DB8AE395EAA2DB8DE994EA9FDB8EE595EA9CDB2D
:200F200081E895EA99DB84EA95EA96DB87EC95EA93DB8AEE95EA90DB8DE096EA8DDB80E37D
:200F400096EA8ADB83E596EA87DB86E796EA84DB8CE994EA81DB89E996EA7EDB8DE994EA88
:200F60007BDB6CED75E080E090E052D98BE994EA73DB89EB96EA70DB81EF96EA6DDB8BE14F
:200F800097EA6ADB8DE994EA67DB8FE397EA64DB8DE994EA61DB83E697EA5EDB8AE997EADC
:200FA0005BDB1F82188619861A861B861C866BE070E0CE0107968EDE2F81388581116AC09E
:200FC0002115310519F0C9010E9472101F8218861B861C8619861A8682E0482E512C612C0B
:200FE000712C8DE994EA38DB82EC97EA35DB81EE97EA32DB89E198EA3BDB19821A821B827B
:201000001C821D821E8270E060E0CE01019662DE29813A81811148C02115310519F0C9017F
:201020000E94721019821A821D821E821B821C828FE998E3B8D9892BD9F38FE998E3C5D946
:20104000182F8D3011F08A30B9F50D811E810115110571F3C980DA807601C114D10409F0A9
:201060004BC009811A810115110509F479C0F80181918F01882309F473C0082E000C990B82
:201080000E94B111F80131978083F1CF86E594EAEFDADCCE8BE090E08B879C8766EB77EA4A
:2010A000C9010E94CB1198CF1D821E826DE974EAC9010E94CB11BCCFED80FE808D871E8618
:2010C000FFEFEF1AFF0AB701CE01019603DE882369F029813A818D819E81BE01635F7F4F2C
:2010E000820F931F0E94CB11ED82FE82612F8FE998E3FDD89DCF750157018FEFA81AB80AAC
:20110000F7018081082E000C990B8AD6892B99F7015011090C0D1D1DF8018081082E000C52
:20112000990B7ED6892B31F00E151F0518F001501109F2CFA8014F5F5F4F4E195F094D83C3
:201140005E83CE14DF0420F4B701C6010E94B911E981FA818D819E81E80FF91F108281CFE7
:201160008DE994EA79DA2D813E818B859C852817390799F489819A816F8178850097C1F123
:201180006115710539F4232B09F43FC0FC01808190E039C00E94C21136C08AE898EA68DAE4
:2011A000C301B20199DA8AE294EA0DDA89819A8199D7F1E04F1A5108610871088FEF48168E
:2011C00058066806780609F00CCF89EA98EA44DA2BC01092393810923A3810923B38109215
:2011E0003C381092933810923838109237382EC06115710551F0232B41F0FB01808190E0E4
:20120000919581959109892B41F68CE198EA24DA8BE298EA21DA86E498EA1EDA8DE994EA5E
:201220001BDA89819A815ED78F8198855BD785EC98EA1EDA24EF31E040E050E068EB7BE0F3
:2012400080E090E016DA81E0809337382E96CDBFDEBFDF91CF911F910F91FF90EF90DF9061
:20126000CF90BF90AF907F906F905F904F90089580919438811101C0BBDC54DD80913F3888
:20128000811102C08091943808958F929F92AF92BF92CF92DF92EF92FF920F931F93CF9302
:2012A000DF93AA24AA94BA2CC4E0D0E0EE24EA94FE2C882341F035E0A32EB12CD0E0C0E0CD
:2012C000EE24E394F12C6701CC0CDD1C8E01000F111F02531C45CA15DB0529F1D801ED917B
:2012E000FC91EE0FFF1FE852FC458080918066E470E0C40172DB6CED70E080E090E00E94F3
:20130000080170E060E0C40168DB68E270E080E090E00E940801ACDF0C0D1D1D811103C0E4
:20132000CE0DDF1DD8CFDF91CF911F910F91FF90EF90DF90CF90BF90AF909F908F900895BA
:201340008F9381E080938D0A8FB78F93EF93FF93E5E9F8E39F9368948FEF0DC0E894848141
:201360009581805D9C4F84839583885E934080F0848395838FEF9081981B919390819F4FC3
:20138000919390819F4F919390819F4F919336F39F91FF91EF918F918FBF8F9118950F939D
:2013A00004E006C00F9302E003C00F9300E000C00F920FB60F921F921124FF921F932F9308
:2013C0003F934F935F936F937F938F939F93AF93BF93CF93DF93EF93FF93A1E0B8E3A00FB8
:2013E000B11DCD91DC91000F0D5FA02FB0E0FC90109761F01F2D169518F041F02296FBCF44
:20140000E991F9913097B9F30995F5CFA02FB0E0FC92FF91EF91DF91CF91BF91AF919F9166
:201420008F917F916F915F914F913F912F911F91FF901F900F900FBE0F900F911895CF9374
:20144000DF93CDB7DEB76297CDBFDEBF88ED90E084BF90936100E0E0F6E083E582838DE0C3
:20146000858380E2838381E08083109202028093030A9EEF9093260A9093270A9BE0909300
:20148000000AE0E8FAE02DEF31E026A737A7118290E89283848781E18083789462E08DE07D
:2014A000DED962E08AE0DBD988ED93EA8C839D83AC81BD811C911296AC83BD8361E0812FD4
:2014C000CED970E060E0812FEFD9EC81FD81E25EF34A71F78091000669EF72E8882371F0B8
:2014E00087E08093060681E08093080680910B0680FFFCCF6091100670911106072E000C18
:20150000880B990B611571058105910509F07FD4809100148734A1F480910114823581F479
:2015200080910214823561F480910314853441F480910414813021F480910514882319F194
:20154000198267E4CE01019629D881E0898362E5CE01019623D882E0898362E5CE0101960E
:201560001DD883E0898365E4CE01019617D884E0898361E0CE01019611D885E0898360E0B8
:20158000CE0101960BD862E370E080E090E00E9408018DE0CAD88111EDC10E94630285ED2A
:2015A00098EA5AD80EEC13EA98EDC92E93EAD92ED801AD90BD908D01F501EE0FFF1FE85244
:2015C000FC45E080F1808FEE98EA52D8B7010F2C000C880B990B80D88DEF98EA49D8B5016D
:2015E000BB0C880B990B78D888E099EA35D86CE370E0C701F2D96CE271E080E090E00E9462
:20160000080170E060E0C701E8D968E770E080E090E00E940801C016D10651F68AE294EAB0
:201620000E94E3028BE099EA17D882E299EA14D8A2D325E030E040E050E0FDD35B011886CF
:2016400012E0412E512C612C712C12DE811192C1F501EE0FFF1FE253FC450190F081E02D17
:20166000EE0FFF1FE852FC45808191818E839F8382D324E630E040E050E0DDD36B017C0136
:2016800092E1C916D104E104F1040CF0ABC073D3A3019201D0D3672B682B692B09F49FC0AD
:2016A00081E090E08A0D9B1D65E070E052D497FD0596880F991FFC01E253FC450190F0815C
:2016C000E02DEE0FFF1FE852FC452080318053D323E130E040E050E0AED3665F7F4F8F4F9A
:2016E0009F4F69877A8747D325E130E040E050E0A2D36E5C7F4F8F4F9F4F4B013CD324E053
:2017000030E040E050E097D36B5F7F4F8F4F9F4F6B877C8730D328EE33E040E050E08BD3CC
:201720006D877E878F87988B68307105810591050CF05AC020D329EE33E040E050E07BD37C
:2017400068517C4F8F4F9F4F6A837B83C40166E070E0FFD3698B7A8B10E000E0B8018E8190
:201760009F813BD9A2E1CA16D104E104F10474F4EE81FF81E215F30549F089899A898017D8
:20178000910724F469857A85C10127D9F4D227E030E040E050E04FD3685F7F4F8F4F9F4F3A
:2017A0000E94080165DD8111E5C0AB85BC850A0F1B1F8016910694F610E000E0EA81FB81D3
:2017C0000E171F07E4F464E170E080E090E00E9408014EDD8111CEC00C5E1F4FEFCF8FEF77
:2017E0009FEF60CFC50165CFC6D221E430E040E050E021D3675E7F4F8F4F9F4FA5CFC401A9
:2018000063E070E0A6D38B01B4018E819F81E5D8F2E1CF16D104E104F10474F48E819F8191
:201820008215930549F069857A850815190514F070E060E0C101D1D89ED22AE030E040E06F
:2018400050E0F9D2685F7F4F8F4F9F4F0E9408010FDD8A8381118EC0AB85BC858A1A9B0AEE
:2018600097FED2CF70E060E08E819F81B6D8B2E1CB16D104E104F1044CF4EE81FF81E2159C
:20188000F30521F070E060E0C101A7D8F885FF2381F171D2A3019201CED2672B682B692B8A
:2018A00029F181E090E08A0D9B1D65E070E051D35C0197FF03C025E0A20EB11C8D859E85C8
:2018C000AF85B8890897A105B1050CF475C153D22EE630E040E050E0AED28B019C01025EC0
:2018E0001F4F2F4F3F4FAA81A88774C18FEF9FEFDACF41D224E630E040E050E09CD26035AA
:201900007105D4F438D2A301920195D2672B682B692B79F081E090E08A0D9B1D65E070E00A
:2019200018D35C0197FF03C085E0A80EB11C1A82C5CF8FEF9FEFF0CF1ED2A30192017BD2AF
:20194000672B682B692B81F081E090E08A0D9B1D65E070E0FED25C0197FF09C095E0A90EF0
:20196000B11CA1E0AA83AACF8FEF9FEFEFCFB1E0BA83A4CF0EEC13EAD801ED91FD918D01FE
:20198000EE0FFF1FE852FC45C080D180F12CE12CB701C60122D868E070E080E090E00E9473
:2019A0000801B5E0EB0EF11CE2E3EE16F10481F74DE2E42EF12CB701C6010FD868E070E0F1
:2019C00080E090E00E940801F5E0EF1AF1082BEFE2162FEFF20679F770E060E0C6010E9424
:2019E000ED0483EA083D180739F68DE290E01FD866E970E080E090E00E94080190E080E036
:201A000016D80E94C40236E4A32EB12C7724739480919438811101C0EBD884D980919438D9
:201A20008111F6CF80919338811115C00E94AB0000918F38109190382091913830919238F9
:201A4000601B710B820B930B613C744D8140910510F001D8DDCF80918D3890918E388230BB
:201A6000910539F134F4009709F1019789F680E01EC08330910509F476C008ED13EA04978F
:201A800039F660E170E0F801819191918F010E94ED048C819D818017910799F764E670E0B2
:201AA00080E090E00E940801E3DBB2CF81E0EDDBAFCFD12CC12CCC9CC001CD9C900D900D0F
:201AC0001124B50146D28B0198EDE92E93EAF92EB801D7018D919D917D010E94ED04EC81DC
:201AE000FD81EE15FF05A1F76EE170E080E090E00E940801BDDB81118BCFF2E0CF0ED11C8F
:201B000028E4C216D104B9F606E410E0009FC001019F900D900D1124B5011BD24B0128ED10
:201B2000C22E23EAD22EB401F601819191916F010E94ED04CE14DF04B1F76EE170E080E059
:201B400090E00E94080194DB811162CF025011090E3FFFEF1F07D1F660E971E080E090E03A
:201B60000E94080155CF88EDE82E83EAF82E10E000E080918C38800F912F911D6DE270E037
:201B800080FF02C070E060E0D7018D919D917D010E94ED040F5F1F4F0530110551F76CE87C
:201BA00070E080E090E00E94080162DB80918C38872580938C382CCFDED02CE830E040E0D8
:201BC00050E039D18B019C0108581F4F2F4F3F4F91E09887F12CE12CE016F1060CF035CD23
:201BE0006FE070E080E090E00E94080141DB8111C1CE9FE0E90EF11CEFCF1092A138109230
:201C0000A23888EE93E0A0E0B0E08093A3389093A438A093A538B093A63880EC93EA8093D7
:201C20009F389093A0381092B1381092B2381092B3381092B4381092B5381092B6381092DF
:201C4000B7381092B8386091B9386E7F6D7F6093B9386695617081E0682787E00E94AD03EF
:201C600061E087E00E942F0484E08093AB3884E294E08093AC389093AD3860E086E00E946C
:201C80002F048091B93881FD04C061E086E00E94AD0386E08093A73888E08093A83888E2B7
:201CA00094E08093A9389093AA38089580EC93EA80939F389093A03880918A3890918B3895
:201CC0008F59984371F4E091AE38F091AF3890818091B03880958923808310928A38109249
:201CE0008B3808958F929F92AF92BF92CF92DF92EF92FF92CF93DF93EC01688179818A810D
:201D00009B81611571058105910521F464E279ED8BE597E02DE133EF41E050E08CD04901D0
:201D20005A019B01AC01A7EAB1E4A1D06B017C01ACEEB4EFA5019401A6D0C60ED71EE81EC2
:201D4000F91EF7FE06C081E0C81AD108E10880E8F80AC882D982EA82FB82C701B6019F771F
:201D6000DF91CF91FF90EF90DF90CF90BF90AF909F908F9008958F929F92AF92BF92CF92F9
:201D8000DF92EF92FF9260910738709108388091093890910A38611571058105910521F47D
:201DA00064E279ED8BE597E02DE133EF41E050E042D049015A019B01AC01A7EAB1E457D0C2
:201DC0006B017C01ACEEB4EFA50194015CD0C60ED71EE81EF91EF7FE06C081E0C81AD108B9
:201DE000E10880E8F80AC0920738D0920838E0920938F0920A38C701B6019F77FF90EF9043
:201E0000DF90CF90BF90AF909F908F90089560930738709308388093093890930A380895B0
:201E2000911106C0803219F089508550D0F70895992788270895052E97FB16F400940FD01F
:201E400057FD05D055D007FC02D046F408C050954095309521953F4F4F4F5F4F089590958C
:201E60008095709561957F4F8F4F9F4F089562D0A59F900DB49F900DA49F800D911D112465
:201E80000895B7FFF4CFF3DF821B930B08952F923F924F925F926F927F928F929F92AF9279
:201EA000BF92CF92DF92EF92FF920F931F93CF93DF93CDB7DEB7CA1BDB0BCDBFDEBF09941B
:201EC0002A88398848885F846E847D848C849B84AA84B984C884DF80EE80FD800C811B8190
:201EE000AA81B981CE0FD11DCDBFDEBFED010895A1E21A2EAA1BBB1BFD010DC0AA1FBB1F2A
:201F0000EE1FFF1FA217B307E407F50720F0A21BB30BE40BF50B661F771F881F991F1A949A
:201F200069F760957095809590959B01AC01BD01CF010895A29FB001B39FC001A39F700DD5
:201F4000811D1124911DB29F700D811D1124911D089597FB072E16F4009406D077FD08D08D
:201F60000BD007FC05D03EF4909581959F4F0895709561957F4F0895AA1BBB1B51E107C0BC
:201F8000AA1FBB1FA617B70710F0A61BB70B881F991F5A95A9F780959095BC01CD01089550
:201FA000EE0FFF1F0590F491E02D09940F931F93CF93DF938230910510F482E090E0E0918B
:201FC000BC38F091BD3830E020E0B0E0A0E0309799F42115310509F44AC0281B390B2430D5
:201FE0003105D8F58A819B816115710589F1FB0182839383FE0111C04081518102811381C0
:2020000048175907E0F04817590799F4109761F012960C93129713961C933296CF01DF919D
:20202000CF911F910F9108950093BC381093BD38F4CF2115310551F04217530738F0A9013F
:20204000DB019A01BD01DF01F801C1CFEF01F9CF8093BC389093BD38CDCFFE01E20FF31F6D
:20206000819391932250310928833983D7CF2091BA383091BB38232B41F420910D383091DE
:202080000E382093BA383093BB3820910B3830910C382115310541F42DB73EB740910F3814
:2020A00050911038241B350BE091BA38F091BB38E217F307A0F42E1B3F0B2817390778F0A0
:2020C000AC014E5F5F4F2417350748F04E0F5F1F4093BA385093BB38819391939FCFF0E05D
:2020E000E0E09CCFCF93DF930097E9F0FC01329712821382A091BC38B091BD38ED0130E029
:2021000020E01097A1F420813181820F931F2091BA383091BB382817390709F061C0E0938A
:20212000BA38F093BB38DF91CF910895EA01CE17DF07E8F54A815B819E0141155105B1F79D
:20214000E901EA83FB8349915991C40FD51FEC17FD0761F4808191810296840F951FE901E7
:2021600088839983828193818A839B83F0E0E0E012968D919C9113970097B9F52D913C91F9
:202180001197CD010296820F931F2091BA383091BB382817390739F6309751F51092BC3846
:2021A0001092BD38A093BA38B093BB38BCCFC283D38340815181840F951FC817D90761F419
:2021C0004E5F5F4F88819981480F591F408351838A819B81828393832115310509F0B0CFF5
:2021E000E093BC38F093BD389ECFFD01DC01C0CF12821382D7CFB0E0A0E0E0E0F1E149CEA1
:202200008C01009741F4CB01D1DE8C01C801CDB7DEB7E0E157CEFC01E60FF71F9C0122507E
:202220003109E217F30708F499C0D901CD91DC911197C617D70790F0C530D10538F3CE01CF
:2022400004978617970710F3C61BD70B2297C193D1936D937C93CF0145DFD8CF5B01AC1AA5
:20226000BD0A4C018C0E9D1EA091BC38B091BD38512C412CF12CE12C109731F58091BA38B6
:202280009091BB388815990509F05CC04616570608F058C080910B3890910C38009741F48C
:2022A0008DB79EB740910F3850911038841B950BE817F90708F052C0E093BA38F093BB3821
:2022C000F90160837183A2CF8D919C91119712966C90129713967C901397A815B90559F554
:2022E0006C0142E0C40ED11CCA14DB0420F1AC014A195B09DA011296159780F062827382D6
:2023000040835183D9016D937C93E114F10471F0D7011296ED93FC93139778CF22968C0F1F
:202320009D1FF90180839183F301EFCFE093BC38F093BD386BCF4816590608F42C017D01A1
:20234000D3019ACFCB0132DE7C01009739F0AE01B8010FD0C801C6DE870158CF10E000E0F4
:2023600055CF9111089581548A5108F4805E855A0895FB01DC0102C001900D924150504008
:20238000D8F70895FB01DC018D91019080190110D9F3990B0895FB01DC0101900D92002069
:2023A000E1F7089510E0CFE3D0E003C0FE01F8DD2196C034D107D1F7F894FFCF000000001A
:2023C000770131015C027601D301E5015E0100000100020003000400100000000100080042
:2023E00009001010F8000000001010104040000000001000102040802010080402010102CA
:2024000004080204080100000000010101010101020202020000000004050607050403026F
:20242000010000010203010203000D0A00454550524F4D204D61726B65722044756D703A3E
:2024400000416464722000307800300020280070726F62652E2E2E00636F6E746163742E05
:202460002E2E0068616E647368616B652061636365707465642E00436865636B696E672096
:202480006669726D776172650053797374656D20626F6F74696E67000A0A0A0A0A002020D6
:2024A00020205F5F5F5F5F5F202020202020202020205F5F5F5F5F5F5F5F5F5F20205F20ED
:2024C00020205F5F002020202F205F5F5F5F2F5F5F5F5F5F5F5F5F5F2F205F5F5F5F2F2033
:2024E0005F5F205C2F207C202F202F0020202F202F205F5F2F205F5F5F2F205F5F5F2F2076
:202500002F2020202F202F202F202F20207C2F202F2000202F202F5F2F202F202F20202F7D
:20252000202F20202F202F5F5F5F2F202F5F2F202F202F7C20202F202000205C5F5F5F5FA4
:202540002F5F2F20202F5F2F2020205C5F5F5F5F2F5C5F5F5F5F2F5F2F207C5F2F0020205B
:20256000202020202020202020202020202E2D2729205F2020202028272D2E202E2D2E209E
:202580000020202020202020202020202020202820204F4F292029202028204F4F20292074
:2025A000202F2000202E2D2D2D2E2E2D2D2D2D2D2D2E2F2020202020272E5F202C2D2D2EE8
:2025C000202C2D2D2E2000202F5F2020207C7C2020205F5F5F7C7C272D2D2E2E2E5F5F299A
:2025E0007C20207C207C20207C0020207C2020207C7C2020272D2D2E20272D2D2E20202E0B
:202600002D2D277C2020202E7C20207C0020207C2020207C602D2D2D2E2020272E20207CF9
:2026200020207C2020207C202020202020207C0020207C2020207C2E2D2020207C20207C1B
:2026400020207C20207C2020207C20202E2D2E20207C0020207C2020207C7C20602D272099
:2026600020202F20207C20207C2020207C20207C207C20207C002020602D2D2D2720602D88
:202680002D2D2D2727202020602D2D27202020602D2D2720602D2D2700202020416E6E69FC
:2026A00076657273617279204368616C6C656E67652042616467652100436F6E6772617489
:2026C000756C6174696F6E732120596F7520666F756E6420746865207374617274206F662D
:2026E00020746865206368616C6C656E6765732E00202020202020202020202020204465CC
:202700007369676E656420616E64207772697474656E206279204865616C0020202020208A
:2027200020202020202020202020202020207777772E68616B346B69647A2E636F6D004679
:202740006F6C6C6F77204048616B344B69647A20666F7220626164676520757064617465F5
:20276000732E00466F722070757A7A6C652064657461696C732C20766973697420746865E5
:2027800020435446205365727665722061742074686973206C696E6B3A0020202020687474
:2027A0007470733A2F2F6269742E6C792F477272434F4E3135007269636B206173746C6556
:2027C0007900456E7465722073656372657420636F646520746F20636F6E74696E75652E6B
:2027E000005468652073656372657420636F6465206973207468652066756C6C206E616DCB
:2028000065206F662074686520706572736F6E20796F75207365652E003E200041434345D4
:202820005353204752414E544544004E6576657220676F6E6E61206769766520796F752032
:2028400075702E2E2E005468697320697320746865207265616C206C696E6B20746F2074EB
:2028600068652043544620536572766572202D3E2068747470733A2F2F6269742E6C792F00
:20288000477272434F4E313562004143434553532044454E4945442E20417474656D7074BD
:2028A00073206C6566743A2000546F6F206D616E7920696E636F72726563742067756573BC
:2028C0007365732E0053797374656D2073687574646F776E00456E746572696E672053654A
:2028E0006E74696E656C204D6F64652E2E2E0054657374696E672070696E3A200020286CCC
:20290000656450696E735B005D290053656E74696E656C204D6F646520436F6D706C657498
:202920006500456E746572696E672053656E74696E656C205761746368204D6F64652E2E7C
:142940002E000126381A381238010000000000BE38800000E3
:00000001FF
